:020000040800F2
:100000000000022019DB0008A9D80008B1D80008B8
:10001000B9D80008C1D80008C9D8000800000000FD
:10002000000000000000000000000000B19D00087A
:10003000D1D800080000000001A000083994000891
:1000400069DB000869DB000869DB000869DB000880
:1000500069DB000869DB000869DB000869DB000870
:1000600069DB000869DB000869DB000869DB000860
:1000700069DB000869DB000869DB000869DB000850
:1000800069DB000869DB000869DB000869DB000840
:1000900069DB000869DB000869DB000869DB000830
:1000A0001DD9000869DB000869DB000869DB00086E
:1000B00069DB000869DB000869DB000869DB000810
:1000C00069DB000869DB000869DB000869DB000800
:1000D00069DB0008E1D8000869DB000869DB00087B
:1000E00069DB000869DB000869DB000869DB0008E0
:1000F000F5D8000809D9000869DB000869DB0008A9
:1001000069DB000869DB000869DB000869DB0008BF
:1001100069DB000869DB000869DB000869DB0008AF
:1001200069DB000869DB000831D9000869DB0008D9
:1001300069DB0008000000000000000069DB000827
:1001400069DB000869DB000869DB000869DB00087F
:1001500069DB000869DB000869DB000869DB00086F
:1001600069DB000869DB000869DB000869DB00085F
:1001700069DB000869DB000869DB0008000000009B
:100180000000000069DB0008000000000000000023
:1001900069DB0008000000000000000069DB0008C7
:1001A00000000000000000000000000069DB000803
:1001B00069DB000869DB000869DB000869DB00080F
:0401C00069DB0008EF
:1001D00010B5054C237833B9044B13B10448AFF381
:1001E00000800123237010BD90000020000000005B
:1001F000D867010808B5034B1BB103490348AFF3A7
:10020000008008BD0000000094000020D8670108AD
:1002100070B54FF0FF0C4CF4E06C1CEA11541DBF9C
:100220001CEA135594EA0C0F95EA0C0F00F0DEF867
:100230002C4481EA030621EA4C5123EA4C5350EA4C
:10024000013518BF52EA033541F4801143F480139D
:1002500038D0A0FB02CE4FF00005E1FB02E506F02E
:100260000042E0FB03E54FF00006E1FB03569CF083
:10027000000F18BF4EF0010EA4F1FF04B6F5007F89
:1002800064F5407404D25FEA4E0E6D4146EB0606FB
:1002900042EAC62141EA55514FEAC52040EA5E5084
:1002A0004FEACE2EB4F1FD0C88BFBCF5E06F1ED82E
:1002B000BEF1004F08BF5FEA500E50F1000041EB65
:1002C000045170BD06F0004646EA010140EA020012
:1002D00081EA0301B4EB5C04C2BFD4EB0C0541EA34
:1002E000045170BD41F480114FF0000E013C00F349
:1002F000AB8014F1360FDEBF002001F0004170BD6D
:10030000C4F10004203C35DA0C341BDC04F1140485
:10031000C4F1200500FA05F320FA04F001FA05F211
:1003200040EA020001F0004221F0004110EBD370DE
:1003300021FA04F642EB06015EEA430E08BF20EA0A
:10034000D37070BDC4F10C04C4F1200500FA04F3AD
:1003500020FA05F001FA04F240EA020001F000413F
:1003600010EBD37041F100015EEA430E08BF20EAB2
:10037000D37070BDC4F1200500FA05F24EEA020EFA
:1003800020FA04F301FA05F243EA020321FA04F029
:1003900001F0004121FA04F220EA020000EBD370E0
:1003A0005EEA430E08BF20EAD37070BD94F0000FE0
:1003B0000FD101F00046400041EB010111F4801F14
:1003C00008BF013CF7D041EA060195F0000F18BFC5
:1003D000704703F00046520043EB030313F4801F01
:1003E00008BF013DF7D043EA0603704794EA0C0FBB
:1003F0000CEA135518BF95EA0C0F0CD050EA4106D1
:1004000018BF52EA4306D1D181EA030101F000414D
:100410004FF0000070BD50EA410606BF1046194675
:1004200052EA430619D094EA0C0F02D150EA013681
:1004300013D195EA0C0F05D152EA03361CBF1046C2
:1004400019460AD181EA030101F0004141F0FE4161
:1004500041F470014FF0000070BD41F0FE4141F4E5
:10046000780170BD81F0004102E000BF83F00043DD
:1004700030B54FEA41044FEA430594EA050F08BF3F
:1004800090EA020F1FBF54EA000C55EA020C7FEA03
:10049000645C7FEA655C00F0E2804FEA5454D4EB80
:1004A0005555B8BF6D420CDD2C4480EA020281EA4A
:1004B000030382EA000083EA010180EA020281EA82
:1004C0000303362D88BF30BD11F0004F4FEA0131D4
:1004D0004FF4801C4CEA113102D0404261EB4101E3
:1004E00013F0004F4FEA03334CEA133302D0524269
:1004F00063EB430394EA050F00F0A780A4F1010425
:10050000D5F1200E0DDB02FA0EFC22FA05F280185E
:1005100041F1000103FA0EF2801843FA05F3594144
:100520000EE0A5F120050EF1200E012A03FA0EFCC3
:1005300028BF4CF0020C43FA05F3C01851EBE371ED
:1005400001F0004507D54FF0000EDCF1000C7EEB0A
:1005500000006EEB0101B1F5801F1BD3B1F5001F48
:100560000CD349085FEA30004FEA3C0C04F1010467
:100570004FEA445212F5800F80F09A80BCF1004F90
:1005800008BF5FEA500C50F1000041EB045141EA12
:10059000050130BD5FEA4C0C404141EB0101013CDB
:1005A00028BFB1F5801FE9D291F0000F04BF0146CA
:1005B0000020B1FA81F308BF2033A3F10B03B3F19C
:1005C00020020CDA0C3208DD02F1140CC2F10C022C
:1005D00001FA0CF021FA02F10CE002F11402D8BF8A
:1005E000C2F1200C01FA02F120FA0CFCDCBF41EA56
:1005F0000C019040E41AA2BF01EB0451294330BD25
:100600006FEA04041F3C1CDA0C340EDC04F1140401
:10061000C4F1200220FA04F001FA02F340EA0300D8
:1006200021FA04F345EA030130BDC4F10C04C4F11E
:10063000200220FA02F001FA04F340EA03002946FE
:1006400030BD21FA04F0294630BD94F0000F83F448
:10065000801306BF81F480110134013D4EE77FEA2B
:10066000645C18BF7FEA655C29D094EA050F08BF77
:1006700090EA020F05D054EA000C04BF1946104658
:1006800030BD91EA030F1EBF0021002030BD5FEA9C
:10069000545C05D14000494128BF41F0004130BDC4
:1006A00014F580043CBF01F5801130BD01F0004518
:1006B00045F0FE4141F470014FF0000030BD7FEA8B
:1006C000645C1ABF194610467FEA655C1CBF0B4686
:1006D000024650EA013406BF52EA033591EA030F9D
:1006E00041F4002130BD00BF90F0000F04BF002195
:1006F000704730B54FF4806404F132044FF00005C8
:100700004FF0000150E700BF90F0000F04BF002140
:10071000704730B54FF4806404F1320410F00045A6
:1007200048BF40424FF000013EE700BF42004FEAA1
:10073000E2014FEA31014FEA02701FBF12F07F431E
:1007400093F07F4F81F06051704732F07F4208BFD5
:10075000704793F07F4F04BF41F40021704730B5DC
:100760004FF4607401F0004521F000411CE700BF28
:1007700050EA010208BF704730B54FF000050AE0AB
:1007800050EA010208BF704730B511F0004502D5AC
:10079000404261EB41014FF4806404F132045FEAAE
:1007A000915C3FF4D8AE4FF003025FEADC0C18BF57
:1007B00003325FEADC0C18BF033202EBDC02C2F149
:1007C000200300FA03FC20FA02F001FA03FE40EADB
:1007D0000E0021FA02F11444BDE600BF4FF0FF3CC9
:1007E00006E000BF4FF0010C02E000BF4FF0010C2B
:1007F0004DF804CD4FEA410C7FEA6C5C4FEA430CA4
:1008000018BF7FEA6C5C1BD001B050EA410C0CBFF2
:1008100052EA430C91EA030F02BF90EA020F002054
:10082000704710F1000F91EA030F58BF994208BFBB
:1008300090422CBFD8176FEAE37040F00100704778
:100840004FEA410C7FEA6C5C02D150EA013C07D1CF
:100850004FEA430C7FEA6C5CD6D152EA033CD3D01A
:100860005DF8040B704700BF8446104662468C4614
:100870001946634600E000BF01B5FFF7B7FF002847
:1008800048BF10F1000F01BD4DF808EDFFF7F4FF70
:100890000CBF012000205DF808FB00BF4DF808EDFB
:1008A000FFF7EAFF34BF012000205DF808FB00BF1E
:1008B0004DF808EDFFF7E0FF94BF012000205DF840
:1008C00008FB00BF4DF808EDFFF7CEFF94BF0120F5
:1008D00000205DF808FB00BF4DF808EDFFF7C4FFEE
:1008E00034BF012000205DF808FB00BF4FEA410241
:1008F00012F5001215D211D56FF47873B3EB625272
:1009000012D94FEAC12343F0004343EA505311F098
:10091000004F23FA02F018BF404270474FF000002A
:10092000704750EA013005D111F0004008BF6FF068
:10093000004070474FF00000704700BF53B94AB9FC
:10094000002908BF00281CBF4FF0FF314FF0FF30D7
:1009500000F088B9ADF1080C6DE904CE00F006F89E
:10096000DDF804E0DDE9022304B070472DE9F0472B
:10097000089D8E4604468846002B4AD18A42174677
:1009800062D9B2FA82F64EB1C6F1200301FA06F836
:1009900020FA03F3B74043EA0808B4404FEA174E81
:1009A0001FFA87FCB8FBFEF1230C0EFB118843EA0B
:1009B000084301FB0CF29A4209D9FB1801F1FF3000
:1009C00080F0EA809A4240F2E78002393B449A1A6A
:1009D000A3B2B2FBFEF00EFB102243EA024300FB7F
:1009E0000CFC9C4509D9FB1800F1FF3280F0D68041
:1009F0009C4540F2D3803B44023840EA0140A3EBDF
:100A00000C0300211DB1F3400022C5E90032BDE80E
:100A1000F0878B4205D90DB1C5E9000100210846D8
:100A2000F5E7B3FA83F1002946D1734502D3824238
:100A300000F20581841A6EEB030201209046002D1E
:100A4000E5D0C5E90048E2E7002A00F09080B2FA5C
:100A500082F6002E40F0A4808A1A030C4FEA174E4B
:100A600080B2BCB20121B2FBFEFC0EFB1C2243EAA9
:100A7000024304FB0CF29A4207D9FB180CF1FF3831
:100A800002D29A4200F2E080C4469B1AB3FBFEF207
:100A90000EFB123340EA034302FB04F49C4207D9E5
:100AA000FB1802F1FF3002D29C4200F2CA800246DB
:100AB0001B1B42EA0C40A5E7C1F120068B4022FA3D
:100AC00006F71F430EFA01F420FA06F32EFA06FE8B
:100AD0004FEA1749234300FA01F81FFA87FCBEFBCF
:100AE000F9F01C0C09FB10EE44EA0E4400FB0CFE6E
:100AF000A64502FA01F209D93C1900F1FF3A80F04B
:100B00009C80A64540F2998002383C44A4EB0E0438
:100B10001FFA83FEB4FBF9F309FB13444EEA0444C5
:100B200003FB0CFCA44508D93C1903F1FF3E80F0FF
:100B30008280A4457FD9023B3C4443EA0040A4EBB9
:100B40000C04A0FB02EC64457346E14662D35FD01F
:100B50005DB1B8EB030264EB090404FA06F622FA6D
:100B600001F31E43CC40C5E9006400214FE7B1FB0F
:100B7000F2FC010C41EA0E4180B240EA01423B46E0
:100B800038463C46B846BE462026B1FBF7F1A2EBFC
:100B9000080241EA0C4166E7014618E710462CE7D7
:100BA000C6F120022EFA02F3B740B14020FA02F259
:100BB0004FEA174E0A43B3FBFEF8BCB20EFB1833E4
:100BC000110C41EA034108FB04F9B04089454FEAA2
:100BD000104380B23ED9791808F1FF3C01D2894513
:100BE0001FD8A1EB0901B1FBFEF909FB04F80EFBCC
:100BF000191192B242EA0142424529D2BA1809F1CA
:100C0000FF31C4D24245C2D2A9F102013A44BEE743
:100C1000F0459DD2BEEB02036CEB070C0138E146B8
:100C200096E7A7EB09094944A8F1020CB1FBFEF9CC
:100C300009FB04F8DBE773467FE7504666E70846A2
:100C4000FDE63B44023A33E7ACF1020C3B441CE7BF
:100C500049469CE7A1EB0901C446B1FBFEF909FB3B
:100C600004F8C4E7704700BF034613F8012B002ABD
:100C7000FBD1181A01387047000000000000000086
:100C800001F0FF01102A2BDB10F0070F08D010F83D
:100C9000013B013A8B422DD010F0070F42B3F6D141
:100CA000F0B441EA012141EA014122F007047FF05A
:100CB00000070023F0E80256083C85EA010586EAB1
:100CC000010685FA47F5A3FA87F586FA47F6A5FAED
:100CD00087F68EB9EED1F0BC01F0FF0102F00702F9
:100CE00032B110F8013B013A83EA010313B1F8D1A4
:100CF0000020704701387047002D06BF3546033885
:100D0000073815F0010F07D1013015F4807F02BFBD
:100D1000013015F4C03F0130F0BC0138704700BF0E
:100D200080B483B000AF124B1B6B114A43F0010338
:100D300013630F4B1B6B7B607B680E4B4FF44012B1
:100D40009A610C4B1B6823F470630A4A43F4A06356
:100D50001360094BD3F88830074A43F47003C2F894
:100D6000883000BF0C37BD465DF8047B704700BF7C
:100D7000003802400000024000ED00E080B582B083
:100D800000AF78607B68002B01D1012341E07B68D4
:100D900093F83D30DBB2002B06D17B68002283F84C
:100DA0003C2078680CF01AFB7B68022283F83D2017
:100DB0007B681A687B6804331946104600F00CFE05
:100DC0007B68012283F846207B68012283F83E205D
:100DD0007B68012283F83F207B68012283F8402052
:100DE0007B68012283F841207B68012283F842203E
:100DF0007B68012283F843207B68012283F844202A
:100E00007B68012283F845207B68012283F83D201E
:100E1000002318460837BD4680BD000080B485B069
:100E200000AF78607B6893F83D30DBB2012B01D0D6
:100E300001234EE07B68022283F83D207B681B681B
:100E4000DA687B681B6842F00102DA607B681B6825
:100E5000234A934222D07B681B68B3F1804F1DD098
:100E60007B681B681F4A934218D07B681B681E4A28
:100E7000934213D07B681B681C4A93420ED07B6858
:100E80001B681B4A934209D07B681B68194A93422E
:100E900004D07B681B68184A934211D17B681B6899
:100EA0009B6803F00703FB60FB68062B10D07B6890
:100EB0001B681A687B681B6842F001021A6007E031
:100EC0007B681B681A687B681B6842F001021A6025
:100ED000002318461437BD465DF8047B704700BFF9
:100EE000000001400004004000080040000C0040E9
:100EF00000040140004001400018004080B483B06D
:100F000000AF78607B681B68DA687B681B6822F03A
:100F10000102DA607B681B681A6A41F21113134000
:100F2000002B0FD17B681B681A6A40F244431340C0
:100F3000002B07D17B681B681A687B681B6822F04E
:100F400001021A607B68012283F83D2000231846C5
:100F50000C37BD465DF8047B704780B582B000AFAA
:100F600078607B68002B01D1012341E07B6893F816
:100F70003D30DBB2002B06D17B68002283F83C2099
:100F800078680CF0A5F97B68022283F83D207B6825
:100F90001A687B6804331946104600F01DFD7B6813
:100FA000012283F846207B68012283F83E207B687B
:100FB000012283F83F207B68012283F840207B6870
:100FC000012283F841207B68012283F842207B685C
:100FD000012283F843207B68012283F844207B6848
:100FE000012283F845207B68012283F83D200023FD
:100FF00018460837BD4680BD80B584B000AF786024
:1010000039603B68002B09D17B6893F83E30DBB236
:10101000012B14BF01230023DBB222E03B68042B29
:1010200009D17B6893F83F30DBB2012B14BF012359
:101030000023DBB215E03B68082B09D17B6893F8ED
:101040004030DBB2012B14BF01230023DBB208E0E8
:101050007B6893F84130DBB2012B14BF01230023DE
:10106000DBB2002B01D001237CE03B68002B04D1D4
:101070007B68022283F83E2013E03B68042B04D1F6
:101080007B68022283F83F200BE03B68082B04D1E9
:101090007B68022283F8402003E07B68022283F809
:1010A00041207B681B6801223968184601F014F85A
:1010B0007B681B682D4A934204D07B681B682C4ACE
:1010C000934201D1012300E00023002B07D07B686D
:1010D0001B685A6C7B681B6842F400425A647B6848
:1010E0001B68224A934222D07B681B68B3F1804F71
:1010F0001DD07B681B681F4A934218D07B681B6811
:101100001D4A934213D07B681B681C4A93420ED041
:101110007B681B68164A934209D07B681B68184A93
:10112000934204D07B681B68164A934211D17B68B6
:101130001B689B6803F00703FB60FB68062B10D05D
:101140007B681B681A687B681B6842F001021A60A2
:1011500007E07B681B681A687B681B6842F0010225
:101160001A60002318461037BD4680BD00000140BC
:10117000000401400004004000080040000C004052
:10118000004001400018004080B582B000AF786098
:101190007B68002B01D1012341E07B6893F83D304F
:1011A000DBB2002B06D17B68002283F83C207868F4
:1011B0000CF0C4F87B68022283F83D207B681A6833
:1011C0007B6804331946104600F006FC7B68012258
:1011D00083F846207B68012283F83E207B68012249
:1011E00083F83F207B68012283F840207B6801223E
:1011F00083F841207B68012283F842207B6801222A
:1012000083F843207B68012283F844207B68012215
:1012100083F845207B68012283F83D20002318468F
:101220000837BD4680BD000080B584B000AF78604F
:1012300039600023FB733B68002B04D17B6893F873
:101240003E30DBB213E03B68042B04D17B6893F89B
:101250003F30DBB20BE03B68082B04D17B6893F88E
:101260004030DBB203E07B6893F84130DBB2BB7304
:101270003B68002B04D17B6893F84230DBB213E06B
:101280003B68042B04D17B6893F84330DBB20BE05E
:101290003B68082B04D17B6893F84430DBB203E051
:1012A0007B6893F84530DBB27B73BB7B012B02D1AB
:1012B0007B7B012B01D00123CCE03B68002B04D1C8
:1012C0007B68022283F83E2013E03B68042B04D1A4
:1012D0007B68022283F83F200BE03B68082B04D197
:1012E0007B68022283F8402003E07B68022283F8B7
:1012F00041203B68002B04D17B68022283F8422006
:1013000013E03B68042B04D17B68022283F843205E
:101310000BE03B68082B04D17B68022283F8442051
:1013200003E07B68022283F845203B680C2B41D800
:1013300001A252F823F000BF6D130008B513000896
:10134000B5130008B51300087F130008B513000893
:10135000B5130008B513000891130008B513000871
:10136000B5130008B5130008A31300087B681B68B9
:10137000DA687B681B6842F00202DA601DE07B6875
:101380001B68DA687B681B6842F00402DA6014E0CC
:101390007B681B68DA687B681B6842F00802DA60C9
:1013A0000BE07B681B68DA687B681B6842F0100200
:1013B000DA6002E00123FB7300BFFB7B002B48D106
:1013C0007B681B6801223968184600F085FE7B683F
:1013D0001B68224A934222D07B681B68B3F1804F7E
:1013E0001DD07B681B681E4A934218D07B681B681F
:1013F0001C4A934213D07B681B681B4A93420ED051
:101400007B681B68194A934209D07B681B68184A9D
:10141000934204D07B681B68164A934211D17B68C3
:101420001B689B6803F00703BB60BB68062B10D0EA
:101430007B681B681A687B681B6842F001021A60AF
:1014400007E07B681B681A687B681B6842F0010232
:101450001A60FB7B18461037BD4680BD0000014076
:101460000004004000080040000C0040000401405F
:10147000004001400018004080B584B000AF7860A3
:101480007B681B68DB68FB607B681B681B69BB6053
:10149000BB6803F00203002B20D0FB6803F00203BB
:1014A000002B1BD07B681B686FF002021A617B68FF
:1014B00001221A777B681B689B6903F00303002BEA
:1014C00003D078680CF0B0F805E0786800F066FAB0
:1014D000786800F06DFA7B6800221A77BB6803F029
:1014E0000403002B20D0FB6803F00403002B1BD067
:1014F0007B681B686FF004021A617B6802221A770E
:101500007B681B689B6903F44073002B03D07868E9
:101510000CF08AF805E0786800F040FA786800F08E
:1015200047FA7B6800221A77BB6803F00803002B98
:1015300020D0FB6803F00803002B1BD07B681B68DE
:101540006FF008021A617B6804221A777B681B68B7
:10155000DB6903F00303002B03D078680CF064F818
:1015600005E0786800F01AFA786800F021FA7B68E4
:1015700000221A77BB6803F01003002B20D0FB6811
:1015800003F01003002B1BD07B681B686FF0100268
:101590001A617B6808221A777B681B68DB6903F491
:1015A0004073002B03D078680CF03EF805E07868B3
:1015B00000F0F4F9786800F0FBF97B6800221A77F4
:1015C000BB6803F00103002B0CD0FB6803F00103A0
:1015D000002B07D07B681B686FF001021A617868E6
:1015E00008F0AEFEBB6803F08003002B0CD0FB6854
:1015F00003F08003002B07D07B681B686FF080022C
:101600001A61786800F014FEBB6803F04003002BF9
:101610000CD0FB6803F04003002B07D07B681B68ED
:101620006FF040021A61786800F0CCF9BB6803F0F3
:101630002003002B0CD0FB6803F02003002B07D005
:101640007B681B686FF020021A61786800F0E6FD85
:1016500000BF1037BD4680BD80B586B000AFF860D2
:10166000B9607A600023FB75FB6893F83C30012B6E
:1016700001D1022388E0FB68012283F83C207B68CB
:10168000002B1BD1FB681868BB681968BB685A68D7
:10169000BB68DB6800F0F6FBFB681B689A69FB68B7
:1016A0001B6822F00C029A61FB681B689969BB6891
:1016B0009A68FB681B680A439A6160E07B68042BA8
:1016C0001CD1FB681868BB681968BB685A68BB689E
:1016D000DB6800F04BFCFB681B689A69FB681B68C1
:1016E00022F440629A61FB681B689969BB689B6839
:1016F0001A02FB681B680A439A6140E07B68082B6A
:101700001BD1FB681868BB681968BB685A68BB685E
:10171000DB6800F068FCFB681B68DA69FB681B6823
:1017200022F00C02DA61FB681B68D969BB689A6811
:10173000FB681B680A43DA6121E07B680C2B1CD133
:10174000FB681868BB681968BB685A68BB68DB68C7
:1017500000F085FCFB681B68DA69FB681B6822F4F3
:101760004062DA61FB681B68D969BB689B681A0232
:10177000FB681B680A43DA6101E00123FB75FB6823
:10178000002283F83C20FB7D18461837BD4680BDFB
:1017900080B586B000AFF860B9607A600023FB7551
:1017A000FB6893F83C30012B01D10223AEE0FB68CB
:1017B000012283F83C207B680C2B00F29F8001A261
:1017C00052F823F0F9170008FD180008FD1800086A
:1017D000FD18000839180008FD180008FD18000859
:1017E000FD1800087B180008FD180008FD18000807
:1017F000FD180008BB180008FB681B68B96818468C
:1018000000F090F9FB681B689A69FB681B6842F05E
:1018100008029A61FB681B689A69FB681B6822F0E2
:1018200004029A61FB681B689969BB681A69FB68C6
:101830001B680A439A6164E0FB681B68B968184634
:1018400000F0E0F9FB681B689A69FB681B6842F4CA
:1018500000629A61FB681B689A69FB681B6822F446
:1018600080629A61FB681B689969BB681B691A02F0
:10187000FB681B680A439A6143E0FB681B68B96810
:10188000184600F035FAFB681B68DA69FB681B68CC
:1018900042F00802DA61FB681B68DA69FB681B68C2
:1018A00022F00402DA61FB681B68D969BB681A6917
:1018B000FB681B680A43DA6123E0FB681B68B968B0
:1018C000184600F089FAFB681B68DA69FB681B6838
:1018D00042F40062DA61FB681B68DA69FB681B6826
:1018E00022F48062DA61FB681B68D969BB681B69F6
:1018F0001A02FB681B680A43DA6102E00123FB75E8
:1019000000BFFB68002283F83C20FB7D1846183797
:10191000BD4680BD80B485B000AF786039600023DB
:10192000FB603B680C2B31D801A252F823F000BFBA
:10193000651900088D1900088D1900088D19000817
:101940006F1900088D1900088D1900088D190008FD
:10195000791900088D1900088D1900088D190008E3
:10196000831900087B681B685B6BFB600FE07B687A
:101970001B689B6BFB600AE07B681B68DB6BFB6092
:1019800005E07B681B681B6CFB6000E000BFFB6828
:1019900018461437BD465DF8047B704780B483B0A9
:1019A00000AF786000BF0C37BD465DF8047B704720
:1019B00080B483B000AF786000BF0C37BD465DF8DF
:1019C000047B704780B483B000AF786000BF0C37F1
:1019D000BD465DF8047B704780B485B000AF786089
:1019E00039607B681B68FB607B68434A934213D075
:1019F0007B68B3F1804F0FD07B68404A93420BD095
:101A00007B683F4A934207D07B683E4A934203D0AB
:101A10007B683D4A934208D1FB6823F07003FB606A
:101A20003B685B68FA681343FB607B68324A934209
:101A30002BD07B68B3F1804F27D07B682F4A93422D
:101A400023D07B682E4A93421FD07B682D4A934255
:101A50001BD07B682C4A934217D07B682B4A934259
:101A600013D07B682A4A93420FD07B68294A93425D
:101A70000BD07B68284A934207D07B68274A934261
:101A800003D07B68264A934208D1FB6823F4407355
:101A9000FB603B68DB68FA681343FB60FB6823F07C
:101AA00080023B685B691343FB603B689A687B6814
:101AB000DA623B681A687B689A627B680E4A9342D6
:101AC00003D07B68104A934203D13B681A697B6854
:101AD0001A637B681B6843F004027B681A607B68AA
:101AE00001225A617B68FA681A6000BF1437BD464C
:101AF0005DF8047B704700BF000001400004004017
:101B000000080040000C004000040140004001407B
:101B1000004401400048014000180040001C004003
:101B20000020004080B487B000AF786039607B68E7
:101B30001B6A7B617B681B6A23F001027B681A6267
:101B40007B685B683B617B689B69FB60FB6823F09B
:101B50007003FB60FB6823F00303FB603B681B68BA
:101B6000FA681343FB607B6923F002037B613B68E7
:101B70009B687A6913437B617B68204A934203D058
:101B80007B681F4A93420CD17B6923F008037B6179
:101B90003B68DB687A6913437B617B6923F004034C
:101BA0007B617B68154A934203D07B68144A934259
:101BB00011D13B6923F480733B613B6923F40073CB
:101BC0003B613B685B693A6913433B613B689B69D6
:101BD0003A6913433B617B683A695A607B68FA68EB
:101BE0009A613B685A687B685A637B687A691A62B3
:101BF00000BF1C37BD465DF8047B70470000014004
:101C00000004014080B487B000AF786039607B6821
:101C10001B6A7B617B681B6A23F010027B681A6277
:101C20007B685B683B617B689B69FB60FB6823F4B6
:101C3000E043FB60FB6823F44073FB603B681B6878
:101C40001B02FA681343FB607B6923F020037B616E
:101C50003B689B681B017A6913437B617B68224A5E
:101C6000934203D07B68214A93420DD17B6923F0D4
:101C700080037B613B68DB681B017A6913437B61EE
:101C80007B6923F040037B617B68174A934203D052
:101C90007B68164A934213D13B6923F480633B610E
:101CA0003B6923F400633B613B685B699B003A69D5
:101CB00013433B613B689B699B003A6913433B615B
:101CC0007B683A695A607B68FA689A613B685A682F
:101CD0007B689A637B687A691A6200BF1C37BD46CD
:101CE0005DF8047B704700BF000001400004014024
:101CF00080B487B000AF786039607B681B6A7B6115
:101D00007B681B6A23F480727B681A627B685B685D
:101D10003B617B68DB69FB60FB6823F07003FB6061
:101D2000FB6823F00303FB603B681B68FA681343FE
:101D3000FB607B6923F400737B613B689B681B023B
:101D40007A6913437B617B68214A934203D07B68A5
:101D5000204A93420DD17B6923F400637B613B6889
:101D6000DB681B027A6913437B617B6923F4806320
:101D70007B617B68164A934203D07B68154A934285
:101D800013D13B6923F480533B613B6923F4005337
:101D90003B613B685B691B013A6913433B613B68EC
:101DA0009B691B013A6913433B617B683A695A603E
:101DB0007B68FA68DA613B685A687B68DA637B683B
:101DC0007A691A6200BF1C37BD465DF8047B704714
:101DD000000001400004014080B487B000AF78608B
:101DE00039607B681B6A3B617B681B6A23F4805205
:101DF0007B681A627B685B687B617B68DB69FB6080
:101E0000FB6823F4E043FB60FB6823F44073FB6052
:101E10003B681B681B02FA681343FB603B6923F4B1
:101E200000533B613B689B681B033A6913433B616A
:101E30007B68124A934203D07B68114A934209D1CE
:101E40007B6923F480437B613B685B699B017A6912
:101E500013437B617B687A695A607B68FA68DA6150
:101E60003B685A687B681A647B683A691A6200BFEB
:101E70001C37BD465DF8047B704700BF0000014081
:101E80000004014080B487B000AFF860B9607A60A8
:101E90003B60FB681B6A3B61FB681B6A23F0010225
:101EA000FB681A62FB689B697B61FB68284A934266
:101EB0001BD0FB68B3F1804F17D0FB68254A9342D3
:101EC00013D0FB68244A93420FD0FB68234A934205
:101ED0000BD0FB68224A934207D0FB68214A934209
:101EE00003D0FB68204A934201D1012300E0002384
:101EF000002B08D07B6923F003037B617A697B6840
:101F000013437B6103E07B6943F001037B617B69E1
:101F100023F0F0037B613B681B01DBB27A6913435A
:101F20007B613B6923F00A033B61BB6803F00A0352
:101F30003A6913433B61FB687A699A61FB683A69C5
:101F40001A6200BF1C37BD465DF8047B704700BFB6
:101F5000000001400004004000080040000C004068
:101F600000040140004001400018004080B487B0E8
:101F700000AFF860B9607A603B60FB681B6A7B6108
:101F8000FB681B6A23F01002FB681A62FB689B69FE
:101F90003B613B6923F440733B617B681B023A69F8
:101FA00013433B613B6923F470433B613B681B0374
:101FB0009BB23A6913433B617B6923F0A0037B61C9
:101FC000BB681B0103F0A0037A6913437B61FB68C4
:101FD0003A699A61FB687A691A6200BF1C37BD468C
:101FE0005DF8047B704780B487B000AFF860B960DB
:101FF0007A603B60FB681B6A7B61FB681B6A23F4A9
:102000008072FB681A62FB68DB693B613B6923F005
:1020100003033B613A697B6813433B613B6923F0EF
:10202000F0033B613B681B01DBB23A6913433B6140
:102030007B6923F420637B61BB681B0203F420638C
:102040007A6913437B61FB683A69DA61FB687A69F4
:102050001A6200BF1C37BD465DF8047B704780B430
:1020600087B000AFF860B9607A603B60FB681B6ABC
:102070007B61FB681B6A23F48052FB681A62FB6871
:10208000DB693B613B6923F440733B617B681B0266
:102090003A6913433B613B6923F470433B613B68FE
:1020A0001B039BB23A6913433B617B6923F42043D2
:1020B0007B61BB681B0303F420437A6913437B6194
:1020C000FB683A69DA61FB687A691A6200BF1C37FB
:1020D000BD465DF8047B704780B487B000AFF86000
:1020E000B9607A60BB6803F01F03012202FA03F3B0
:1020F0007B61FB681A6A7B69DB431A40FB681A62E2
:10210000FB681A6ABB6803F01F03796801FA03F3DE
:102110001A43FB681A6200BF1C37BD465DF8047B9A
:102120007047000080B485B000AF786039607B688C
:1021300093F83C30012B01D102235AE07B68012245
:1021400083F83C207B68022283F83D207B681B6873
:102150005B68FB607B681B689B68BB60FB6823F067
:102160007003FB603B681B68FA681343FB607B6885
:102170001B68FA685A607B681B68214A934222D028
:102180007B681B68B3F1804F1DD07B681B681D4ABC
:10219000934218D07B681B681B4A934213D07B681C
:1021A0001B681A4A93420ED07B681B68184A9342F8
:1021B00009D07B681B68174A934204D07B681B6870
:1021C000154A93420CD1BB6823F08003BB603B6887
:1021D0005B68BA681343BB607B681B68BA689A6027
:1021E0007B68012283F83D207B68002283F83C2035
:1021F000002318461437BD465DF8047B704700BFC6
:10220000000001400004004000080040000C0040B5
:1022100000040140004001400018004080B483B039
:1022200000AF786000BF0C37BD465DF8047B704797
:1022300080B483B000AF786000BF0C37BD465DF856
:10224000047B704780B584B000AF78600023FB73D7
:102250007B68002B01D1012333E07B681B6C002BD2
:1022600009D178680AF054FD7B6800225A647B68C3
:10227000002283F83C207B681B6C03F01003002BCA
:1022800018D17B681B6C23F4885323F0020343F0BE
:1022900002027B681A64786800F0B4FA7B68002256
:1022A0005A647B681B6C23F0030343F001027B68D4
:1022B0001A6401E00123FB737B68002283F83C2051
:1022C000FB7B18461037BD4680BD000080B485B04A
:1022D00000AF78600023BB607B6893F83C30012B33
:1022E00001D10223B2E07B68012283F83C207B68A5
:1022F0001B689B6803F00103012B18D07B681B68E7
:102300009A687B681B6842F001029A60524B1B6816
:10231000524AA2FB03239A0C13465B001344BB6092
:1023200002E0BB68013BBB60BB68002BF9D17B6856
:102330001B689B6803F00103012B7AD17B681B6C3F
:1023400023F4E06323F0010343F480727B681A6492
:102350007B681B685B6803F48063002B07D07B6895
:102360001B6C23F4405343F480527B681A647B68EF
:102370001B6C03F48053B3F5805F06D17B685B6C04
:1023800023F006027B685A6402E07B6800225A64EC
:102390007B68002283F83C20314BFB607B681B6824
:1023A0006FF022021A60FB685B6803F01F03002BCA
:1023B0002AD17B681B682B4A934215D07B681B6827
:1023C000294A934205D1264B5B6803F01F03002B7B
:1023D0000AD07B681B68254A934236D1204B5B6844
:1023E00003F01003002B30D17B681B689B6803F05F
:1023F0004053002B29D17B681B689A687B681B6857
:1024000042F080429A6020E07B681B68154A934244
:102410001BD17B681B689B6803F04053002B14D1D1
:102420007B681B689A687B681B6842F080429A60F0
:102430000BE07B681B6C43F010027B681A647B68BE
:102440005B6C43F001027B685A6400231846143722
:10245000BD465DF8047B70470000002083DE1B430F
:1024600000230140002001400021014000220140E2
:1024700080B584B000AF786039600023FB607B6872
:102480001B689B6803F48063B3F5806F13D17B688E
:102490001B689B6803F48073B3F5807F0BD17B6866
:1024A0001B6C43F020027B681A647B68002283F86F
:1024B0003C20012363E00BF071FAF86021E03B68F7
:1024C000B3F1FF3F1DD03B68002B07D00BF066FA3D
:1024D0000246FB68D31A3A689A4212D27B681B689C
:1024E0001B6803F00203022B0BD07B681B6C43F0CC
:1024F00004027B681A647B68002283F83C20032373
:102500003DE07B681B681B6803F00203022BD6D1F9
:102510007B681B686FF012021A607B681B6C43F4C7
:1025200000727B681A647B681B689B6803F04053E9
:10253000002B23D17B681B7E002B1FD17B681B687F
:10254000DB6A03F47003002B06D07B681B689B6872
:1025500003F48063002B11D17B681B6C23F4807221
:102560007B681A647B681B6C03F48053002B05D1D5
:102570007B681B6C43F001027B681A6400231846D9
:102580001037BD4680BD80B483B000AF78607B68F3
:102590001B68DB6C18460C37BD465DF8047B704742
:1025A00080B485B000AF786039600023BB607B6881
:1025B00093F83C30012B01D1022313E17B68012207
:1025C00083F83C203B681B68092B25D97B681B6876
:1025D000D9683B681B689BB21A4613465B001344DC
:1025E0001E3B072202FA03F3DA437B681B680A40AA
:1025F000DA607B681B68D9683B689A683B681B682F
:102600009BB2184603465B0003441E3B9A407B681E
:102610001B680A43DA6022E07B681B6819693B6823
:102620001B689BB21A4613465B001344072202FA4A
:1026300003F3DA437B681B680A401A617B681B68F6
:1026400019693B689A683B681B689BB21846034649
:102650005B0003449A407B681B680A431A613B682D
:102660005B68062B24D87B681B68596B3B685A68EB
:1026700013469B001344053B1F2202FA03F3DA437F
:102680007B681B680A405A637B681B68596B3B6810
:102690001B689BB218463B685A6813469B0013445C
:1026A000053B00FA03F27B681B680A435A634CE05F
:1026B0003B685B680C2B24D87B681B68196B3B68F4
:1026C0005A6813469B001344233B1F2202FA03F36C
:1026D000DA437B681B680A401A637B681B68196BC6
:1026E0003B681B689BB218463B685A6813469B00C0
:1026F0001344233B00FA03F27B681B680A431A6306
:1027000023E07B681B68D96A3B685A6813469B00C4
:102710001344413B1F2202FA03F3DA437B681B6830
:102720000A40DA627B681B68D96A3B681B689BB207
:1027300018463B685A6813469B001344413B00FA15
:1027400003F27B681B680A43DA62294BFB607B68F3
:102750001B68284A93420FD13B681B68122B0BD190
:10276000FB685B6823F40002FB685A60FB685B68E7
:1027700043F48002FB685A607B681B681D4A9342E1
:102780002BD13B681B681C4A934203D03B681B68F3
:10279000112B22D1FB685B6823F48002FB685A602E
:1027A000FB685B6843F40002FB685A603B681B6887
:1027B000114A934211D1114B1B68114AA2FB03230A
:1027C0009A0C13469B0013445B00BB6002E0BB689D
:1027D000013BBB60BB68002BF9D17B68002283F80A
:1027E0003C20002318461437BD465DF8047B704733
:1027F00000230140002001401200001000000020D2
:1028000083DE1B4380B485B000AF7860794BFB60FA
:10281000FB685B6823F44032FB685A60FB685A68C7
:102820007B685B681A43FB685A607B681B685A6860
:102830007B681B6822F480725A607B681B68596849
:102840007B681B691A027B681B680A435A607B68B5
:102850001B685A687B681B6822F040725A607B686C
:102860001B6859687B689A687B681B680A435A60D2
:102870007B681B689A687B681B6822F400629A6018
:102880007B681B6899687B68DA687B681B680A4309
:102890009A607B689B6A584A934222D07B681B6887
:1028A0009A687B681B6822F070629A607B681B687C
:1028B00099687B689A6A7B681B680A439A607B68A0
:1028C0001B689A687B681B6822F040529A607B689C
:1028D0001B6899687B68DA6A7B681B680A439A60A0
:1028E0000FE07B681B689A687B681B6822F0706247
:1028F0009A607B681B689A687B681B6822F040526C
:102900009A607B681B689A687B681B6822F00202E9
:102910009A607B681B6899687B681B7E5A007B689D
:102920001B680A439A607B6893F82030002B1BD009
:102930007B681B685A687B681B6842F400625A60B7
:102940007B681B685A687B681B6822F460425A6087
:102950007B681B6859687B685B6A013B5A037B682C
:102960001B680A435A6007E07B681B685A687B68EB
:102970001B6822F400625A607B681B68DA6A7B6815
:102980001B6822F47002DA627B681B68D96A7B6874
:10299000DB69013B1A057B681B680A43DA627B68C6
:1029A0001B689A687B681B6822F400729A607B68D7
:1029B0001B6899687B6893F830305A027B681B6803
:1029C0000A439A607B681B689A687B681B6822F4DC
:1029D00080629A607B681B6899687B685B699A0271
:1029E0007B681B680A439A6000BF1437BD465DF8D8
:1029F000047B7047002301400100000F80B584B0C4
:102A000000AF786039607B68002B01D10123CCE0F6
:102A1000684B1B6803F00F033A689A420CD9654B68
:102A20003A68D2B21A70634B1B6803F00F033A681E
:102A30009A4201D00123B8E07B681B6803F00203CF
:102A4000002B20D07B681B6803F00403002B05D00B
:102A5000594B9B68584A43F4E05393607B681B686A
:102A600003F00803002B05D0534B9B68524A43F4F4
:102A700060439360504B9B6823F0F0027B689B6837
:102A80004D4913438B607B681B6803F00103002BE7
:102A900044D07B685B68012B07D1474B1B6803F46C
:102AA0000033002B19D101237FE07B685B68022B88
:102AB00003D07B685B68032B07D13F4B1B6803F097
:102AC0000073002B09D101236FE03B4B1B6803F01F
:102AD0000203002B01D1012367E0374B9B6823F0F1
:102AE00003027B685B68344913438B600AF056FF2E
:102AF000F8600AE00AF052FF0246FB68D31A41F27E
:102B00008832934201D903234FE02B4B9B6803F09B
:102B10000C027B685B689B009A42EBD1254B1B68DB
:102B200003F00F033A689A420CD2224B3A68D2B2B1
:102B30001A70204B1B6803F00F033A689A4201D0C9
:102B4000012332E07B681B6803F00403002B08D0EC
:102B5000194B9B6823F4E0527B68DB6816491343EA
:102B60008B607B681B6803F00803002B09D0124BB5
:102B70009B6823F460427B681B69DB000E491343AA
:102B80008B6000F087F802460B4B9B681B0903F033
:102B90000F030A49CB5C22FA03F3094A1360094B7D
:102BA0001B6818460AF006FF002318461037BD467A
:102BB00080BD00BF003C024000380240A46A01080A
:102BC000000000200400002080B400AF034B1B680D
:102BD0001846BD465DF8047B704700BF000000202A
:102BE00080B500AFFFF7F0FF0246054B9B689B0ADC
:102BF00003F007030349CB5C22FA03F3184680BDB8
:102C000000380240B46A010880B500AFFFF7DCFF6E
:102C10000246054B9B685B0B03F007030349CB5C43
:102C200022FA03F3184680BD00380240B46A010856
:102C300080B483B000AF786039607B680F221A607F
:102C4000124B9B6803F003027B685A600F4B9B6832
:102C500003F0F0027B689A600C4B9B6803F4E0522F
:102C60007B68DA60094B9B68DB0803F4E0527B6801
:102C70001A61074B1B6803F00F023B681A6000BF24
:102C80000C37BD465DF8047B704700BF003802403A
:102C9000003C02402DE9B04FAEB000AF0023C7F8B2
:102CA000AC300023C7F8B4300023C7F8A8300023A5
:102CB000C7F8A4300023C7F8B030CB4B9B6803F0B3
:102CC0000C030C2B00F2068201A252F823F000BF85
:102CD000052D0008D5300008D5300008D530000893
:102CE0000D2D0008D5300008D5300008D53000087B
:102CF000152D0008D5300008D5300008D530000863
:102D0000052F0008B94BC7F8B030E7E1B84BC7F85A
:102D1000B030E3E1B44B5B6803F03F03C7F8AC307D
:102D2000B14B5B6803F48003002B71D0AE4B5B6842
:102D30009B090022C7F89830C7F89C20D7F8983034
:102D4000C3F30803C7F890300023C7F89430D7E9DD
:102D5000244522462B464FF000004FF00001590158
:102D600041EAD261500102460B462146511A3964AC
:102D7000294663EB01037B644FF000024FF0000330
:102D8000D7E9108949468B01414643EA91634146A0
:102D90008A014146511AB963494663EB0103FB635B
:102DA0004FF000024FF00003D7E90E894946CB00EF
:102DB000414643EA51734146CA001046194603464C
:102DC00022469B183B632B460A4642EB03037B6378
:102DD0004FF000024FF00003D7E90C4529464B02A3
:102DE000214643EAD15321464A0210461946D7F8F4
:102DF000AC300022C7F88830C7F88C20D7E92223EE
:102E0000FDF79CFD02460B461346C7F8B43067E059
:102E1000754B5B689B090022C7F88030C7F8842097
:102E2000D7F88030C3F30803BB670023FB67D7E9FB
:102E30001E4522462B464FF000004FF0000159017D
:102E400041EAD261500102460B462146511AB9624D
:102E5000294663EB0103FB624FF000024FF00003D1
:102E6000D7E90A8949468B01414643EA91634146C5
:102E70008A014146B2EB010A494663EB010B4FF070
:102E800000024FF000034FEACB0343EA5A734FEAC4
:102E9000CA0292469B4623461AEB03033B622B462B
:102EA0004BEB03037B624FF000024FF00003D7E9C6
:102EB000084529468B02214643EA915321468A025E
:102EC00010461946D7F8AC3000223B677A67D7E93D
:102ED0001C23FDF733FD02460B461346C7F8B430FA
:102EE000414B5B681B0C03F0030301335B00C7F825
:102EF000A830D7F8B420D7F8A830B2FBF3F3C7F85E
:102F0000B030EBE0384B5B6803F03F03C7F8AC3000
:102F1000354B5B6803F48003002B6BD0324B5B684E
:102F20009B090022BB66FA66BB6EC3F308033B66CF
:102F300000237B66D7E9184522462B464FF0000058
:102F40004FF00001590141EAD261500102460B469F
:102F50002146511AB961294663EB0103FB614FF029
:102F600000024FF00003D7E906AB59468B015146EA
:102F700043EA916351468A015146B2EB0108594632
:102F800063EB01094FF000024FF000034FEAC90361
:102F900043EA58734FEAC80290469946234618EB15
:102FA00003033B612B4649EB03037B614FF00002B7
:102FB0004FF00003D7E9044529464B02214643EA76
:102FC000D15321464A0210461946D7F8AC300022A8
:102FD000BB65FA65D7E91623FDF7B0FC02460B4640
:102FE0001346C7F8B43065E0003802400024F4000E
:102FF00000127A003D4B5B689B090022184611467F
:10300000C0F308033B6500237B65D7E9148942467A
:103010004B464FF000004FF00001590141EAD261E8
:10302000500102460B464146511AB960494663EBCE
:103030000103FB604FF000024FF00003D7E902AB41
:1030400059468B01514643EA916351468A015146E4
:10305000541A594663EB01054FF000024FF000038C
:10306000EB0043EA5473E20014461D464346E3185E
:103070003B604B4645EB03037B604FF000024FF093
:103080000003D7E9004529468B02214643EA9153C4
:1030900021468A0210461946D7F8AC300022BB649C
:1030A000FA64D7E91223FDF749FC02460B461346A2
:1030B000C7F8B4300D4B5B681B0F03F00703C7F86C
:1030C000A430D7F8B420D7F8A430B2FBF3F3C7F894
:1030D000B03003E0064BC7F8B03000BFD7F8B030CF
:1030E0001846B837BD46BDE8B08F00BF0038024073
:1030F0000024F40080B586B000AF78607B68002BB8
:1031000001D101238DE27B681B6803F00103002BD2
:1031100000F08380944B9B6803F00C03042B19D0C0
:10312000914B9B6803F00C03082B06D18E4B5B6818
:1031300003F48003B3F5800F0CD08B4B9B6803F036
:103140000C030C2B12D1884B5B6803F48003B3F59E
:10315000800F0BD1844B1B6803F40033002B5BD032
:103160007B685B68002B57D101235AE27B685B6860
:10317000B3F5803F06D17C4B1B687B4A43F4803318
:1031800013601DE07B685B68B3F5A02F0CD1764B14
:103190001B68754A43F480231360734B1B68724AA3
:1031A00043F4803313600BE06F4B1B686E4A23F4CB
:1031B000803313606C4B1B686B4A23F480231360CD
:1031C0007B685B68002B13D00AF0E8FB386108E0ED
:1031D0000AF0E4FB02463B69D31A642B01D90323AE
:1031E0001FE2614B1B6803F40033002BF0D014E0A6
:1031F0000AF0D4FB386108E00AF0D0FB02463B69D4
:10320000D31A642B01D903230BE2574B1B6803F439
:103210000033002BF0D100E000BF7B681B6803F097
:103220000203002B6FD0504B9B6803F00C03002B64
:1032300017D04D4B9B6803F00C03082B05D14A4B6C
:103240005B6803F48003002B0BD0474B9B6803F0B3
:103250000C030C2B1CD1444B5B6803F48003002B44
:1032600016D1414B1B6803F00203002B05D07B688D
:10327000DB68012B01D00123D3E13B4B1B6823F01A
:10328000F8027B681B69DB00374913430B603AE0A7
:103290007B68DB68002B20D0344B01221A600AF0D7
:1032A0007DFB386108E00AF079FB02463B69D31ADE
:1032B000022B01D90323B4E12B4B1B6803F002035B
:1032C000002BF0D0284B1B6823F0F8027B681B69A9
:1032D000DB00254913430B6015E0244B00221A60E4
:1032E0000AF05CFB386108E00AF058FB02463B69D3
:1032F000D31A022B01D9032393E11B4B1B6803F064
:103300000203002BF0D17B681B6803F00803002B3D
:1033100036D07B685B69002B16D0154B01221A60F2
:103320000AF03CFB386108E00AF038FB02463B69D2
:10333000D31A022B01D9032373E10B4B5B6F03F00C
:103340000203002BF0D01BE0094B00221A600AF0A8
:1033500025FB38610EE00AF021FB02463B69D31AD7
:10336000022B07D903235CE10038024000004742EA
:10337000800E47428A4B5B6F03F00203002BEAD1B9
:103380007B681B6803F00403002B00F09780002388
:10339000FB75834B1B6C03F08053002B0FD1002374
:1033A000BB607F4B1B6C7E4A43F0805313647C4BA5
:1033B0001B6C03F08053BB60BB680123FB75794B2A
:1033C0001B6803F48073002B18D1764B1B68754A79
:1033D00043F4807313600AF0E1FA386108E00AF000
:1033E000DDFA02463B69D31A022B01D9032318E107
:1033F0006C4B1B6803F48073002BF0D07B689B68D8
:10340000012B06D1664B1B6F654A43F0010313671E
:103410001CE07B689B68052B0CD1614B1B6F604ADD
:1034200043F0040313675E4B1B6F5D4A43F00103D7
:1034300013670BE05A4B1B6F594A23F001031367C4
:10344000574B1B6F564A23F0040313677B689B6836
:10345000002B15D00AF0A2FA38610AE00AF09EFAB1
:1034600002463B69D31A41F28832934201D90323C1
:10347000D7E04B4B1B6F03F00203002BEED014E0A0
:103480000AF08CFA38610AE00AF088FA02463B69D1
:10349000D31A41F28832934201D90323C1E0404B51
:1034A0001B6F03F00203002BEED1FB7D012B05D136
:1034B0003B4B1B6C3A4A23F0805313647B689B6937
:1034C000002B00F0AD80364B9B6803F00C03082BFB
:1034D00060D07B689B69022B45D1334B00221A6078
:1034E0000AF05CFA386108E00AF058FA02463B69D3
:1034F000D31A022B01D9032393E0294B1B6803F055
:103500000073002BF0D17B68DA697B681B6A1A4371
:103510007B685B6A9B011A437B689B6A5B08013B83
:103520001B041A437B68DB6A1B061A437B681B6B10
:103530001B071B4913434B601B4B01221A600AF007
:103540002DFA386108E00AF029FA02463B69D31ADD
:10355000022B01D9032364E0114B1B6803F00073B5
:10356000002BF0D05CE0104B00221A600AF016FA33
:10357000386108E00AF012FA02463B69D31A022BBE
:1035800001D903234DE0064B1B6803F00073002BA9
:10359000F0D145E07B689B69012B07D1012340E016
:1035A0000038024000700040600047421F4B5B68DB
:1035B000FB607B689B69012B30D0FB6803F48002C1
:1035C0007B68DB699A4229D1FB6803F03F027B6884
:1035D0001B6A9A4222D1FA6847F6C07313407A6890
:1035E000526A9201934219D1FB6803F440327B681E
:1035F0009B6A5B08013B1B049A420FD1FB6803F0F6
:1036000070627B68DB6A1B069A4207D1FB6803F095
:10361000E0427B681B6B1B079A4201D0012300E04C
:10362000002318461837BD4680BD00BF0038024051
:1036300080B489B000AF7860396000237B610023DB
:103640003B610023BB610023FB6165E10122FB6953
:1036500002FA03F37B613B681B687A6913403B61A4
:103660003A697B699A4240F054813B685B6803F099
:103670000303012B05D03B685B6803F00303022BB7
:1036800030D17B689B68BB61FB695B00032202FA57
:1036900003F3DB43BA691340BB613B68DA68FB693B
:1036A0005B0002FA03F3BA691343BB617B68BA6932
:1036B0009A607B685B68BB610122FB6902FA03F3D5
:1036C000DB43BA691340BB613B685B681B0903F0CD
:1036D0000102FB6902FA03F3BA691343BB617B6819
:1036E000BA695A603B685B6803F00303032B17D089
:1036F0007B68DB68BB61FB695B00032202FA03F3B2
:10370000DB43BA691340BB613B689A68FB695B00A5
:1037100002FA03F3BA691343BB617B68BA69DA60E2
:103720003B685B6803F00303022B23D1FB69DA08D3
:103730007B68083253F82230BB61FB6903F0070352
:103740009B000F2202FA03F3DB43BA691340BB610B
:103750003B681A69FB6903F007039B0002FA03F355
:10376000BA691343BB61FB69DA087B680832B9693F
:1037700043F822107B681B68BB61FB695B00032276
:1037800002FA03F3DB43BA691340BB613B685B6831
:1037900003F00302FB695B0002FA03F3BA69134307
:1037A000BB617B68BA691A603B685B6803F44033AD
:1037B000002B00F0AE800023FB605D4B5B6C5C4A2D
:1037C00043F4804353645A4B5B6C03F48043FB60C7
:1037D000FB68584AFB699B08023352F82330BB61EF
:1037E000FB6903F003039B000F2202FA03F3DB43A0
:1037F000BA691340BB617B684F4A934225D07B680E
:103800004E4A93421FD07B684D4A934219D07B6841
:103810004C4A934213D07B684B4A93420DD07B684D
:103820004A4A934207D07B68494A934201D1062312
:103830000CE007230AE0052308E0042306E0032345
:1038400004E0022302E0012300E00023FA6902F011
:10385000030292009340BA691343BB613549FB6987
:103860009B080233BA6941F823203A4B9B68BB613D
:103870003B69DB43BA691340BB613B685B6803F497
:103880008013002B03D0BA693B691343BB61314AF3
:10389000BB6993602F4BDB68BB613B69DB43BA6953
:1038A0001340BB613B685B6803F40013002B03D03B
:1038B000BA693B691343BB61264ABB69D360254B98
:1038C0005B68BB613B69DB43BA691340BB613B6822
:1038D0005B6803F40033002B03D0BA693B691343E0
:1038E000BB611C4ABB6953601A4B1B68BB613B69D7
:1038F000DB43BA691340BB613B685B6803F4803308
:10390000002B03D0BA693B691343BB61114ABB6901
:103910001360FB690133FB61FB690F2B7FF696AEE9
:1039200000BF00BF2437BD465DF8047B704700BF71
:10393000003802400038014000000240000402400C
:1039400000080240000C0240001002400014024037
:1039500000180240003C014080B487B000AF78609E
:10396000396000233B610023FB600023BB60002320
:103970007B61C7E001227B6902FA03F33B613A688D
:103980003B691340FB60FA683B699A4240F0B7809C
:10399000624A7B699B08023352F82330BB607B6923
:1039A00003F003039B000F2202FA03F3BA681340EB
:1039B000BB607B685A4A934225D07B68594A934240
:1039C0001FD07B68584A934219D07B68574A93426C
:1039D00013D07B68564A93420DD07B68554A934278
:1039E00007D07B68544A934201D106230CE0072399
:1039F0000AE0052308E0042306E0032304E0022391
:103A000002E0012300E000237A6902F00302920041
:103A10009340BA689A4232D1484B1A68FB68DB433C
:103A2000464913400B60454B5A68FB68DB434349EA
:103A300013404B60414BDA68FB68DB433F4913405E
:103A4000CB603E4B9A68FB68DB433C4913408B607C
:103A50007B6903F003039B000F2202FA03F3BB60B0
:103A60002E4A7B699B08023352F82310BB68DA4365
:103A70002A487B699B080A40023340F823207B6870
:103A80001A687B695B00032101FA03F3DB431A40E8
:103A90007B681A607B69DA087B68083253F8221069
:103AA0007B6903F007039B000F2202FA03F3DB4359
:103AB0007A69D20819407B68083243F822107B6883
:103AC000DA687B695B00032101FA03F3DB431A40E8
:103AD0007B68DA607B685A6801217B6901FA03F32D
:103AE000DB431A407B685A607B689A687B695B009D
:103AF000032101FA03F3DB431A407B689A607B6978
:103B000001337B617B690F2B7FF634AF00BF00BFB1
:103B10001C37BD465DF8047B704700BF003801408C
:103B2000000002400004024000080240000C024075
:103B3000001002400014024000180240003C014006
:103B400080B485B000AF78600B467B807B681A69D3
:103B50007B881340002B02D00123FB7301E000237C
:103B6000FB73FB7B18461437BD465DF8047B70473A
:103B700080B483B000AF78600B467B8013467B70C7
:103B80007B78002B03D07A887B689A6103E07B887E
:103B90001A047B689A6100BF0C37BD465DF8047B50
:103BA000704780B485B000AF78600B467B807B683F
:103BB0005B69FB607A88FB6813401A04FB68D94391
:103BC0007B880B401A437B689A6100BF1437BD465F
:103BD0005DF8047B7047000080B586B000AF786068
:103BE00000237B6109F0DAFE38617B68002B01D18C
:103BF000012399E07B68022283F835207B6800224C
:103C000083F834207B681B681A687B681B6822F085
:103C100001021A600FE009F0C1FE02463B69D31AA7
:103C2000052B08D97B6820225A657B68032283F81C
:103C30003520032378E07B681B681B6803F00103D1
:103C4000002BE8D17B681B681B687B617A69384B65
:103C500013407B617B685A687B689B681A437B686A
:103C6000DB681A437B681B691A437B685B691A43EC
:103C70007B689B691A437B68DB691A437B681B6A14
:103C800013437A6913437B617B685B6A042B07D11A
:103C90007B68DA6A7B681B6B13437A6913437B6129
:103CA0007B681B687A691A607B681B685B697B614B
:103CB0007B6923F007037B617B685B6A7A69134346
:103CC0007B617B685B6A042B17D17B689B6A7A698E
:103CD00013437B617B68DB6A002B0ED0786800F0B1
:103CE0005FFB0346002B08D07B6840225A657B6847
:103CF000012283F83520012316E07B681B687A696E
:103D00005A61786800F016FB0346FB607B68DB6D48
:103D10003F229A40FB689A607B6800225A657B6864
:103D2000012283F83520002318461837BD4680BD90
:103D30003F8010F080B584B000AF78607B68002BC6
:103D400001D1012350E07B6893F83530DBB2022BC0
:103D500001D1022348E07B681B681A687B681B68F6
:103D600022F001021A607B681B6800221A607B68DF
:103D70001B6800225A607B681B6800229A607B687F
:103D80001B680022DA607B681B6800221A617B686E
:103D90001B6821225A61786800F0CCFA0346FB6068
:103DA0007B680022DA637B6800221A647B68002249
:103DB0005A647B6800229A647B680022DA647B681C
:103DC00000221A657B68DB6D3F229A40FB689A608F
:103DD0007B6800225A657B68002283F835207B6867
:103DE000002283F83420002318461037BD4680BDDA
:103DF00080B586B000AFF860B9607A603B600023A0
:103E0000FB75FB689B6D3B61FB6893F83430012BBD
:103E100001D1022340E0FB68012283F83420FB68D3
:103E200093F83530DBB2012B2FD1FB68022283F8E7
:103E30003520FB6800225A653B687A68B968F868E3
:103E400000F04AFAFB68DB6D3F229A403B699A60BA
:103E5000FB681B681A68FB681B6842F016021A6050
:103E6000FB681B6C002B07D0FB681B681A68FB689B
:103E70001B6842F008021A60FB681B681A68FB683E
:103E80001B6842F001021A6005E0FB68002283F81B
:103E900034200223FB75FB7D18461837BD4680BDD4
:103EA00080B584B000AF78607B689B6DFB6009F0E3
:103EB00075FDB8607B6893F83530DBB2022B08D013
:103EC0007B6880225A657B68002283F834200123B6
:103ED00052E07B681B681A687B681B6822F0160238
:103EE0001A607B681B685A697B681B6822F0800235
:103EF0005A617B681B6C002B03D17B689B6C002B89
:103F000007D07B681B681A687B681B6822F0080270
:103F10001A607B681B681A687B681B6822F00102C4
:103F20001A6013E009F03AFD0246BB68D31A052B6C
:103F30000CD97B6820225A657B68032283F83520E0
:103F40007B68002283F83420032315E07B681B681C
:103F50001B6803F00103002BE4D17B68DB6D3F227B
:103F60009A40FB689A607B68012283F835207B6861
:103F7000002283F83420002318461037BD4680BD48
:103F800080B483B000AF78607B6893F83530DBB2E3
:103F9000022B04D07B6880225A6501230CE07B68E9
:103FA000052283F835207B681B681A687B681B68CC
:103FB00022F001021A60002318460C37BD465DF856
:103FC000047B704780B586B000AF78600023BB608B
:103FD0008E4B1B688E4AA2FB03239B0A7B617B6886
:103FE0009B6D3B613B691B68FB607B68DB6D082256
:103FF0009A40FB681340002B1AD07B681B681B6833
:1040000003F00403002B13D07B681B681A687B68DD
:104010001B6822F004021A607B68DB6D08229A405C
:104020003B699A607B685B6D43F001027B685A656F
:104030007B68DB6D01229A40FB681340002B12D095
:104040007B681B685B6903F08003002B0BD07B68E7
:10405000DB6D01229A403B699A607B685B6D43F09F
:1040600002027B685A657B68DB6D04229A40FB681C
:104070001340002B12D07B681B681B6803F00203FF
:10408000002B0BD07B68DB6D04229A403B699A6061
:104090007B685B6D43F004027B685A657B68DB6D6F
:1040A00010229A40FB681340002B43D07B681B68AA
:1040B0001B6803F00803002B3CD07B68DB6D1022EB
:1040C0009A403B699A607B681B681B6803F48023F5
:1040D000002B18D07B681B681B6803F40023002B9F
:1040E00008D17B681B6C002B24D07B681B6C786824
:1040F00098471FE07B689B6C002B1BD07B689B6CF8
:104100007868984716E07B681B681B6803F4807327
:10411000002B07D17B681B681A687B681B6822F03C
:1041200008021A607B681B6C002B03D07B681B6C39
:10413000786898477B68DB6D20229A40FB681340C3
:10414000002B00F08F807B681B681B6803F0100356
:10415000002B00F087807B68DB6D20229A403B6952
:104160009A607B6893F83530DBB2052B36D17B68DB
:104170001B681A687B681B6822F016021A607B684D
:104180001B685A697B681B6822F080025A617B6851
:104190001B6C002B03D17B689B6C002B07D07B68CA
:1041A0001B681A687B681B6822F008021A607B682B
:1041B000DB6D3F229A403B699A607B68012283F85D
:1041C00035207B68002283F834207B681B6D002B30
:1041D0007ED07B681B6D7868984779E07B681B68A8
:1041E0001B6803F48023002B1DD07B681B681B68B1
:1041F00003F40023002B0DD17B685B6C002B31D0C6
:104200007B685B6C786898472CE000BF000000205A
:10421000B5814E1B7B68DB6B002B23D07B68DB6B8F
:10422000786898471EE07B681B681B6803F48073FE
:10423000002B0FD17B681B681A687B681B6822F013
:1042400010021A607B68012283F835207B68002207
:1042500083F834207B68DB6B002B03D07B68DB6B3F
:10426000786898477B685B6D002B32D07B685B6D0C
:1042700003F00103002B22D07B68052283F8352050
:104280007B681B681A687B681B6822F001021A6051
:10429000BB680133BB607A699A4207D37B681B68AD
:1042A0001B6803F00103002BF2D100E000BF7B6824
:1042B000012283F835207B68002283F834207B6854
:1042C000DB6C002B05D07B68DB6C7868984700E0DE
:1042D00000BF1837BD4680BD80B485B000AFF86020
:1042E000B9607A603B60FB681B681A68FB681B68F2
:1042F00022F480221A60FB681B683A685A60FB68E7
:104300009B68402B08D1FB681B687A689A60FB6841
:104310001B68BA68DA6007E0FB681B68BA689A60D5
:10432000FB681B687A68DA6000BF1437BD465DF829
:10433000047B704780B485B000AF78607B681B68F1
:10434000DBB2103B144AA2FB03231B09FB60134A98
:10435000FB6813441B781A467B68DA65FB68032BFD
:1043600009D97B681B6823F47F7323F003031A1DAC
:104370007B689A6507E07B681B6823F47F7323F0F2
:1043800003037A6893657B689B6D18461437BD46B6
:104390005DF8047B704700BFABAAAAAABC6A0108FB
:1043A00080B485B000AF78600023FB737B689B6AA4
:1043B000BB607B689B69002B1FD1BB68032B56D861
:1043C00001A252F823F000BFD9430008EB430008D4
:1043D000D94300086F4400087B68DB6A03F08073F0
:1043E000002B46D00123FB7343E07B68DB6AB3F10B
:1043F000C07F40D10123FB733DE07B689B69B3F52F
:10440000005F21D1BB68032B37D801A252F823F0FB
:1044100021440008274400082144000839440008CA
:104420000123FB7330E07B68DB6A03F08073002BB1
:1044300025D00123FB7322E07B68DB6AB3F1C07FE8
:104440001FD10123FB731CE0BB68022B03D9BB689F
:10445000032B03D018E00123FB7315E07B68DB6AB4
:1044600003F08073002B0ED00123FB730BE000BF21
:104470000AE000BF08E000BF06E000BF04E000BFA4
:1044800002E000BF00E000BFFB7B18461437BD46CA
:104490005DF8047B704700BF80B582B000AF002399
:1044A0007B6000233B60204B1B6C1F4A43F0805312
:1044B00013641D4B1B6C03F080533B603B681B4B2C
:1044C00001221A6009F06AFA786009E009F066FAD8
:1044D00002467B68D31AB3F57A7F01D903231FE024
:1044E000134B5B6803F48033B3F5803FEED1114B7F
:1044F00001221A6009F052FA786009E009F04EFAD8
:1045000002467B68D31AB3F57A7F01D9032307E00B
:10451000074B5B6803F40033B3F5003FEED1002393
:1045200018460837BD4680BD0038024040000E42A4
:104530000070004044000E4280B485B000AF786047
:104540007B6803F00703FB600C4BDB68BB60BA6859
:104550004FF6FF031340BB60FB681A02BB681343AE
:1045600043F0BF6343F40033BB60044ABB68D360CD
:1045700000BF1437BD465DF8047B704700ED00E0D6
:1045800080B400AF044BDB681B0A03F00703184636
:10459000BD465DF8047B704700ED00E080B483B059
:1045A00000AF0346FB7197F90730002B0BDBFB795B
:1045B00003F01F02074997F907305B09012000FA51
:1045C00002F241F8232000BF0C37BD465DF8047BA2
:1045D000704700BF00E100E080B483B000AF034645
:1045E000FB7197F90730002B12DBFB7903F01F02F8
:1045F0000A4997F907305B09012000FA02F22033DB
:1046000041F82320BFF34F8F00BFBFF36F8F00BF70
:1046100000BF0C37BD465DF8047B704700E100E049
:1046200080B483B000AF03463960FB7197F907305F
:10463000002B0ADB3B68DAB20C4997F9073012010C
:10464000D2B20B4483F800230AE03B68DAB208498F
:10465000FB7903F00F03043B1201D2B20B441A762C
:1046600000BF0C37BD465DF8047B704700E100E0F9
:1046700000ED00E080B489B000AFF860B9607A6006
:10468000FB6803F00703FB61FB69C3F10703042B1D
:1046900028BF0423BB61FB690433062B02D9FB69E5
:1046A000033B00E000237B614FF0FF32BB6902FA5D
:1046B00003F3DA43BB681A407B699A404FF0FF313D
:1046C0007B6901FA03F3D9437B680B401343184617
:1046D0002437BD465DF8047B704780B582B000AFDB
:1046E00078607868FFF728FF00BF0837BD4680BDB7
:1046F00080B586B000AF0346B9607A60FB730023D3
:104700007B61FFF73DFF78617A68B9687869FFF7E8
:10471000B1FF024697F90F3011461846FFF780FFA8
:1047200000BF1837BD4680BD80B582B000AF0346DC
:10473000FB7197F907301846FFF730FF00BF0837C5
:10474000BD4680BD80B582B000AF0346FB7197F9CE
:1047500007301846FFF740FF00BF0837BD4680BD51
:1047600080B500AF0E4B1B680D4A43F40073136015
:104770000B4B1B680A4A43F480631360084B1B68A9
:10478000074A43F4807313600320FFF7A6FF0F204E
:1047900009F010F909F0D6F80023184680BD00BFD3
:1047A000003C024080B400AF064B1B781A46064B13
:1047B0001B681344044A136000BFBD465DF8047BC8
:1047C000704700BF08000020AC00002080B584B016
:1047D00000AF786009F0E2F8B8607B68FB60FB68C6
:1047E000B3F1FF3F05D00A4B1B781A46FB68134410
:1047F000FB6000BF09F0D2F80246BB68D31AFA6822
:104800009A42F7D800BF00BF1037BD4680BD00BF39
:104810000800002080B582B000AF78607B68002B74
:1048200001D1012314E07B681B79DBB2002B05D199
:104830007B6800225A71786808F0E2FA7B680222ED
:104840001A717B6800221A617B6801221A710023A9
:1048500018460837BD4680BD80B483B000AF78608D
:1048600039607B68002B01D1012346E07B685B79CE
:10487000012B01D1022340E07B6801225A717B6841
:1048800002221A717B681B6819683B6803F01003E9
:1048900001229A407B681B680A431A603B68002B20
:1048A0000FD17B681B681B6803F03C033C2B1DD1B8
:1048B0007B681B685A687B681B6842F001025A607B
:1048C00014E07B681B681B6803F470123B6803F0FC
:1048D00010033C2101FA03F39A4207D17B681B685D
:1048E0005A687B681B6842F002025A607B680122AA
:1048F0001A717B6800225A71002318460C37BD4696
:104900005DF8047B704780B487B000AFF860B96091
:104910007A603B6000237B61FB68002B01D101239F
:1049200015E0FB681B687B61BB68002B05D17A69C9
:104930007B68134408337B6104E07A697B68134425
:1049400014337B617B691A463B6813600023184669
:104950001C37BD465DF8047B704780B485B000AF5E
:10496000786039600023FB603B68002B04D17B68D2
:104970001B68DB6AFB6003E07B681B681B6BFB60EA
:10498000FB6818461437BD465DF8047B704780B459
:1049900089B000AFF860B9607A600023FB77FB68EC
:1049A000002B02D0BB68002B01D1012342E0FB6841
:1049B0005B79012B01D102233CE0FB6801225A7193
:1049C000FB6802221A71FB681B681B68BB617B686D
:1049D00003F0100340F6FE7202FA03F3DB43BA69F8
:1049E0001340BB61BB681A68BB685B6813437B619B
:1049F0007B6803F010037A6902FA03F3BA69134380
:104A0000BB61FB681B68BA691A60FB681B681968A0
:104A10007B6803F01003C02202FA03F3DA43FB6859
:104A20001B680A401A60FB6801221A71FB680022A9
:104A30005A71FB7F18462437BD465DF8047B7047EA
:104A400080B582B000AF78607B68002B01D1012374
:104A50007BE07B685B6A002B08D17B685B68B3F501
:104A6000827F09D07B680022DA6105E07B68002242
:104A70001A617B6800225A617B6800229A627B6817
:104A800093F85130DBB2002B06D17B68002283F80B
:104A90005020786808F086FA7B68022283F851205B
:104AA0007B681B681A687B681B6822F040021A60EA
:104AB0007B685B6803F482727B689B6803F4044341
:104AC0001A437B68DB6803F400631A437B681B6945
:104AD00003F002031A437B685B6903F001031A4386
:104AE0007B689B6903F400731A437B68DB6903F0FE
:104AF00038031A437B681B6A03F0800342EA030110
:104B00007B689B6A03F400527B681B680A431A6047
:104B10007B689B691B0C03F004017B685B6A03F0F4
:104B200010027B681B680A435A607B681B68DA695D
:104B30007B681B6822F40062DA617B6800225A6598
:104B40007B68012283F85120002318460837BD46B0
:104B500080BD80B588B000AFF860B9603B60134697
:104B6000FB8008F01BFFF861FB887B83FB6893F8F0
:104B70005130DBB2012B01D002232AE1BB68002BAC
:104B800002D0FB88002B01D1012322E1FB6893F8BE
:104B90005030012B01D102231BE1FB68012283F875
:104BA0005020FB68032283F85120FB6800225A65DD
:104BB000FB68BA681A63FB68FA889A86FB68FA8809
:104BC000DA86FB6800229A63FB6800229A87FB68FA
:104BD0000022DA87FB6800225A64FB6800221A640C
:104BE000FB689B68B3F5004F0FD1FB681B681A6820
:104BF000FB681B6822F040021A60FB681B681A6899
:104C0000FB681B6842F480421A60FB681B681B68E3
:104C100003F04003402B07D0FB681B681A68FB6851
:104C20001B6842F040021A60FB68DB68B3F5006F56
:104C300052D1FB685B68002B02D07B8B012B45D1E6
:104C4000FB681B6B1A88FB681B68DA60FB681B6BD0
:104C50009A1CFB681A63FB68DB8E9BB2013B9AB21D
:104C6000FB68DA8632E0FB681B689B6803F002038E
:104C7000022B12D1FB681B6B1A88FB681B68DA6079
:104C8000FB681B6B9A1CFB681A63FB68DB8E9BB28C
:104C9000013B9AB2FB68DA8618E008F07FFE024614
:104CA000FB69D31A3A689A4203D83B68B3F1FF3FD5
:104CB00002D13B68002B09D1FB68012283F8512007
:104CC000FB68002283F85020032382E0FB68DB8E20
:104CD0009BB2002BC7D153E0FB685B68002B02D06E
:104CE0007B8B012B47D1FB681A6BFB681B680C336D
:104CF00012781A70FB681B6B5A1CFB681A63FB68FE
:104D0000DB8E9BB2013B9AB2FB68DA8633E0FB682C
:104D10001B689B6803F00203022B13D1FB681A6B1C
:104D2000FB681B680C3312781A70FB681B6B5A1CEB
:104D3000FB681A63FB68DB8E9BB2013B9AB2FB688F
:104D4000DA8618E008F02AFE0246FB69D31A3A68B0
:104D50009A4203D83B68B3F1FF3F02D13B68002B76
:104D600009D1FB68012283F85120FB68002283F8F7
:104D7000502003232DE0FB68DB8E9BB2002BC6D1B5
:104D8000FA693968F86800F0D9FB0346002B02D0B5
:104D9000FB6820225A65FB689B68002B0AD1002320
:104DA0007B61FB681B68DB687B61FB681B689B6839
:104DB0007B617B69FB68012283F85120FB6800223C
:104DC00083F85020FB685B6D002B01D0012300E0CD
:104DD000002318462037BD4680BD80B588B002AF9D
:104DE000F860B9603B601346FB80FB6893F8513074
:104DF000DBB2012B01D0022304E1BB68002B02D0FF
:104E0000FB88002B01D10123FCE0FB685B68B3F554
:104E1000827F12D1FB689B68002B0ED1FB680422B5
:104E200083F85120FA883B6800931346BA68B96842
:104E3000F86800F0EBF80346E4E008F0AFFD7861B5
:104E4000FB6893F85030012B01D10223DAE0FB68B4
:104E5000012283F85020FB68042283F85120FB686C
:104E600000225A65FB68BA689A63FB68FA889A87D9
:104E7000FB68FA88DA87FB6800221A63FB68002265
:104E80009A86FB680022DA86FB6800221A64FB68B7
:104E900000225A64FB689B68B3F5004F0FD1FB6892
:104EA0001B681A68FB681B6822F040021A60FB68E6
:104EB0001B681A68FB681B6822F480421A60FB6852
:104EC0001B681B6803F04003402B07D0FB681B687E
:104ED0001A68FB681B6842F040021A60FB68DB68D6
:104EE000002B70D135E0FB681B689B6803F0010361
:104EF000012B15D1FB681B6803F10C02FB689B6B4F
:104F00001278D2B21A70FB689B6B5A1CFB689A63CA
:104F1000FB68DB8F9BB2013B9AB2FB68DA8718E033
:104F200008F03CFD02467B69D31A3A689A4203D8DE
:104F30003B68B3F1FF3F02D13B68002B09D1FB680E
:104F4000012283F85120FB68002283F850200323BC
:104F500058E0FB68DB8F9BB2002BC4D138E0FB68C4
:104F60001B689B6803F00103012B13D1FB681B68CE
:104F7000DA68FB689B6B92B21A80FB689B6B9A1C89
:104F8000FB689A63FB68DB8F9BB2013B9AB2FB68BC
:104F9000DA8718E008F002FD02467B69D31A3A6806
:104FA0009A4203D83B68B3F1FF3F02D13B68002B24
:104FB00009D1FB68012283F85120FB68002283F8A5
:104FC000502003231EE0FB68DB8F9BB2002BC6D171
:104FD0007A693968F86800F04BFA0346002B02D072
:104FE000FB6820225A65FB68012283F85120FB6888
:104FF000002283F85020FB685B6D002B01D0012359
:1050000000E0002318461837BD4680BD80B58AB041
:1050100000AFF860B9607A607B8001237B6208F0A2
:10502000BDFC3862FB6893F85130FB77FB685B6826
:10503000BB617B88FB82FB7F012B0CD0BB69B3F586
:10504000827F06D1FB689B68002B02D1FB7F042B7B
:1050500001D002237FE1BB68002B05D07B68002BC9
:1050600002D07B88002B01D1012374E1FB6893F807
:105070005030012B01D102236DE1FB68012283F83E
:105080005020FB6893F85130DBB2042B03D0FB684F
:10509000052283F85120FB6800225A65FB687A6874
:1050A0009A63FB687A88DA87FB687A889A87FB6854
:1050B000BA681A63FB687A88DA86FB687A889A8607
:1050C000FB6800221A64FB6800225A64FB681B68B4
:1050D0001B6803F04003402B07D0FB681B681A686D
:1050E000FB681B6842F040021A60FB68DB68B3F59E
:1050F000006F7ED1FB685B68002B02D0FB8A012B1E
:105100006CD1FB681B6B1A88FB681B68DA60FB6854
:105110001B6B9A1CFB681A63FB68DB8E9BB2013B1E
:105120009AB2FB68DA8659E0FB681B689B6803F05B
:105130000203022B1BD1FB68DB8E9BB2002B16D027
:105140007B6A012B13D1FB681B6B1A88FB681B68F9
:10515000DA60FB681B6B9A1CFB681A63FB68DB8ECA
:105160009BB2013B9AB2FB68DA8600237B62FB6844
:105170001B689B6803F00103012B19D1FB68DB8FCF
:105180009BB2002B14D0FB681B68DA68FB689B6B32
:1051900092B21A80FB689B6B9A1CFB689A63FB684F
:1051A000DB8F9BB2013B9AB2FB68DA8701237B62FB
:1051B00008F0F4FB02463B6AD31A3A6B9A420DD8C8
:1051C0003B6BB3F1FF3F09D0FB68012283F851200C
:1051D000FB68002283F850200323BCE0FB68DB8ED1
:1051E0009BB2002BA0D1FB68DB8F9BB2002B9BD125
:1051F00082E0FB685B68002B02D0FB8A012B71D137
:10520000FB681A6BFB681B680C3312781A70FB681A
:105210001B6B5A1CFB681A63FB68DB8E9BB2013B5D
:105220009AB2FB68DA865DE0FB681B689B6803F056
:105230000203022B1CD1FB68DB8E9BB2002B17D024
:105240007B6A012B14D1FB681A6BFB681B680C335B
:1052500012781A70FB681B6B5A1CFB681A63FB6898
:10526000DB8E9BB2013B9AB2FB68DA8600237B623D
:10527000FB681B689B6803F00103012B19D1FB68D5
:10528000DB8F9BB2002B14D0FB681B68DA68FB68CD
:105290009B6BD2B21A70FB689B6B5A1CFB689A63BB
:1052A000FB68DB8F9BB2013B9AB2FB68DA87012374
:1052B0007B6208F073FB02463B6AD31A3A6B9A4250
:1052C00003D83B6BB3F1FF3F02D13B6B002B09D1FD
:1052D000FB68012283F85120FB68002283F85020EC
:1052E000032338E0FB68DB8E9BB2002B9CD1FB686C
:1052F000DB8F9BB2002B97D13A6A396BF86800F0CC
:105300001DF90346002B08D0FB6820225A65FB6874
:10531000002283F8502001231DE0FB689B68002BCE
:105320000AD100233B61FB681B68DB683B61FB68BB
:105330001B689B683B613B69FB68012283F8512035
:10534000FB68002283F85020FB685B6D002B01D0C6
:10535000012300E0002318462837BD4680BD000029
:1053600080B588B000AFF860B9603B601346FB7150
:1053700008F014FB0246BB6A9B1A3A681344FB61AF
:1053800008F00CFBB861394B1B685B011B0DFA6917
:1053900002FB03F37B6155E03B68B3F1FF3F51D063
:1053A00008F0FCFA0246BB69D31AFA699A4202D99C
:1053B000FB69002B3DD1FB681B685A68FB681B68C2
:1053C00022F0E0025A60FB685B68B3F5827F11D17E
:1053D000FB689B68B3F5004F04D0FB689B68B3F58E
:1053E000806F07D1FB681B681A68FB681B6822F096
:1053F00040021A60FB689B6AB3F5005F0FD1FB683F
:105400001B681A68FB681B6822F400521A60FB686C
:105410001B681A68FB681B6842F400521A60FB683C
:10542000012283F85120FB68002283F850200323D7
:1054300018E07B69002B02D10023FB6102E07B694D
:10544000013B7B61FB681B689A68BB681340BA68C4
:105450009A420CBF01230023DBB21A46FB799A4221
:105460009AD1002318462037BD4680BD0000002099
:1054700080B586B002AFF860B9607A60FB685B689F
:10548000B3F5827F11D1FB689B68B3F5004F04D060
:10549000FB689B68B3F5806F07D1FB681B681A68CF
:1054A000FB681B6822F040021A60FB685B68B3F57A
:1054B000827F2AD1FB689B68B3F5806F12D07B682E
:1054C0000093BB6800228021F868FFF749FF03467C
:1054D000002B2DD0FB685B6D43F02002FB685A6502
:1054E000032326E07B680093BB6800220121F86853
:1054F000FFF736FF0346002B1AD0FB685B6D43F0C5
:105500002002FB685A65032313E07B680093BB68A5
:1055100000220121F868FFF723FF0346002B07D084
:10552000FB685B6D43F02002FB685A65032300E0D3
:10553000002318461037BD4680BD000080B588B0F6
:1055400002AFF860B9607A607B680093BB680122A3
:105550000221F868FFF704FF0346002B07D0FB6821
:105560005B6D43F02002FB685A65032332E01B4B5E
:105570001B681B4AA2FB03235B0D4FF47A7202FBEC
:1055800003F37B61FB685B68B3F5827F12D17B68B4
:105590000093BB6800228021F868FFF7E1FE034614
:1055A000002B16D0FB685B6D43F02002FB685A6548
:1055B00003230FE07B69002B0AD07B69013B7B61F1
:1055C000FB681B689B6803F08003802BF2D000E02F
:1055D00000BF002318461837BD4680BD00000020DC
:1055E000819F5E1680B582B000AF78607B68002B2B
:1055F00001D1012342E07B6893F84130DBB2002BFC
:1056000006D17B68002283F84020786808F0A4F86F
:105610007B68242283F841207B681B68DA687B68FA
:105620001B6822F40052DA60786800F0C9FF7B68DA
:105630001B681A697B681B6822F490421A617B68B8
:105640001B685A697B681B6822F02A025A617B68D2
:105650001B68DA687B681B6842F40052DA607B687A
:1056600000225A647B68202283F841207B68202234
:1056700083F842207B6800225A63002318460837CB
:10568000BD4680BD80B582B000AF78607B68002BDE
:1056900001D1012324E07B68242283F841207B6828
:1056A0001B68DA687B681B6822F40052DA6078684D
:1056B00008F0D4F87B6800225A647B68002283F8E3
:1056C00041207B68002283F842207B6800221A6315
:1056D0007B6800225A637B68002283F84020002305
:1056E00018460837BD4680BD80B58AB002AFF86065
:1056F000B9603B601346FB8000237B61FB6893F835
:105700004130DBB2202B75D1BB68002B02D0FB8867
:10571000002B01D101236EE0FB6800225A64FB6874
:10572000212283F8412008F039F97861FB68FA8872
:105730009A84FB68FA88DA84FB689B68B3F5805F1B
:1057400008D1FB681B69002B04D10023FB61BB68F7
:10575000BB6103E0BB68FB610023BB612EE03B68DB
:1057600000937B6900228021F86800F067FC034603
:10577000002B05D0FB68202283F8412003233AE068
:10578000FB69002B0BD1BB691B881A46FB681B68A1
:10579000C2F308025A60BB690233BB6107E0FB69D0
:1057A0001A78FB681B685A60FB690133FB61FB6870
:1057B000DB8C9BB2013B9AB2FB68DA84FB68DB8C22
:1057C0009BB2002BCBD13B6800937B690022402128
:1057D000F86800F033FC0346002B05D0FB6820225C
:1057E00083F84120032306E0FB68202283F8412050
:1057F000002300E0022318462037BD4680BD80B557
:105800008CB000AFF860B9601346FB80FB6893F87A
:105810004230DBB2202B46D1BB68002B02D0FB8884
:10582000002B01D101233FE0FB6801221A63FB68D2
:1058300000225A63FB881A46B968F86800F058FCE1
:10584000034687F82F30FB681B6B012B25D1002303
:105850003B61FB681B681B683B61FB681B685B68FE
:105860003B613B69FB681B680C33BB61BB6953E858
:10587000003F7B617B6943F01003BB62FB681B68E0
:105880000C33BA6A7A623B62396A7A6A41E8002369
:10589000FB61FB69002BE5D102E0012387F82F3083
:1058A00097F82F3000E0022318463037BD4680BD00
:1058B00080B5BAB000AF78607B681B681B68C7F81A
:1058C000E4307B681B68DB68C7F8E0307B681B68E6
:1058D0005B69C7F8DC300023C7F8D8300023C7F86D
:1058E000D430D7F8E43003F00F03C7F8D830D7F836
:1058F000D830002B0FD1D7F8E43003F02003002B71
:1059000009D0D7F8E03003F02003002B03D07868EB
:1059100000F098FD73E2D7F8D830002B00F0DE805D
:10592000D7F8DC3003F00103002B06D1D7F8E030C4
:1059300003F49073002B00F0D180D7F8E43003F02B
:105940000103002B0BD0D7F8E03003F48073002B59
:1059500005D07B685B6C43F001027B685A64D7F822
:10596000E43003F00403002B0BD0D7F8DC3003F055
:105970000103002B05D07B685B6C43F002027B685F
:105980005A64D7F8E43003F00203002B0BD0D7F8A9
:10599000DC3003F00103002B05D07B685B6C43F027
:1059A00004027B685A64D7F8E43003F00803002B44
:1059B00011D0D7F8E03003F02003002B05D1D7F841
:1059C000DC3003F00103002B05D07B685B6C43F0F7
:1059D00008027B685A647B685B6C002B00F00A82CB
:1059E000D7F8E43003F02003002B08D0D7F8E030DC
:1059F00003F02003002B02D0786800F023FD7B68C1
:105A00001B685B6903F04003402B0CBF012300239C
:105A1000DBB2C7F8D4307B685B6C03F00803002B63
:105A200003D1D7F8D430002B4FD0786800F02EFC8B
:105A30007B681B685B6903F04003402B41D17B68A6
:105A40001B681433C7F89C30D7F89C3053E8003FEC
:105A5000C7F89830D7F8983023F04003C7F8D03013
:105A60007B681B681433D7F8D020C7F8A820C7F884
:105A7000A430D7F8A410D7F8A82041E80023C7F82D
:105A8000A030D7F8A030002BD9D17B68DB6B002B7E
:105A900013D07B68DB6B8A4A1A657B68DB6B184620
:105AA000FEF76EFA0346002B16D07B68DB6B1B6D8E
:105AB0007A68D26B104698470EE078680AF018F8BA
:105AC0000AE078680AF014F806E078680AF010F83E
:105AD0007B6800225A648DE100BF8BE17B681B6B01
